:020000041000EA
:1000000000B5324B212058609868022188439860DF
:10001000D860186158612E4B002199600221596106
:100020000121F02299502B49196001219960352056
:1000300000F044F80222904214D00621196600F024
:1000400034F8196E01211966002018661A6600F04E
:100050002CF8196E196E196E052000F02FF8012189
:100060000842F9D1002199601B49196000215960AB
:100070001A491B48016001219960EB211966A021F2
:10008000196600F012F800219960164914480160C1
:100090000121996001BC002800D000471248134993
:1000A000086003C880F30888084703B5996A0420EC
:1000B0000142FBD001200142F8D103BD02B5186610
:1000C0001866FFF7F2FF186E186E02BD00000240BE
:1000D000000000180000070000035F00212200005C
:1000E000F4000018222000A00001001008ED00E03C
:1000F00000000000000000000000000074B24E7A12
:1001000000200420F7010010C3010010C5010010F9
:10011000C1010010C1010010C1010010C101001097
:10012000C1010010C1010010C1010010C701001081
:10013000C1010010C1010010C9010010CB01001065
:10014000CD010010CD010010CD010010CD01001037
:10015000CD010010CD010010CD010010CD01001027
:10016000CD010010CD010010CD010010CD01001017
:10017000CD010010CD010010CD010010CD01001007
:10018000CD010010CD010010CD010010CD010010F7
:10019000CD010010CD010010CD010010CD010010E7
:1001A000CD010010CD010010CD010010CD010010D7
:1001B000CD010010CD010010CD010010CD010010C7
:1001C00000BE00BE00BE00BE00BE00BEEFF3058054
:1001D000103800BEF2EB88712089001044890010AD
:1001E0003802001090A31AE71E481F49086006C88D
:1001F00081F3088810471D480068002801D019487D
:10020000F3E70DA40ECC002902D000F012F8F9E7B4
:100210001749184A002000E001C19142FCD116495B
:100220008847164988471649884700BEFDE701C937
:1002300001C29A42FBD3704744890010C0000020DD
:10024000C80C00204C950010000004200000042081
:100250004C95001000100420001004200000000045
:10026000704700000000000008ED00E0000000D032
:10027000C80C0020441D0020C13E001035050010B0
:100280007D3E0010F8B5C04610B5064C2378002B13
:1002900007D1054B002B02D0044800E000BF01232A
:1002A000237010BD500E002000000000F4740010F8
:1002B000044B10B5002B03D00349044800E000BFF5
:1002C00010BDC04600000000540E0020F474001061
:1002D000002000217047000070B584B003ACF52306
:1002E0002370613B63700B4D00260096923B220009
:1002F0007621280007F02CF8F4232370C53B6370A7
:1003000000962D3B22007621280007F021F804B04A
:1003100070BDC046B80C0020F0B587B005000E00D7
:100320000F226A44F7231370114FF63B0093762196
:10033000380007F00DF804AC0023009306332200C8
:100340007621380007F010F823781B036278120139
:100350001343A278120913433360E3781B03227915
:10036000120113436279120913432B6007B0F0BDE9
:10037000B80C002030B5C2100D886C00141B02238D
:10038000CA5E6243D21203115B1B5B431B13042042
:10039000085E58438013101830BD10B5FFF7EAFF10
:1003A00003008000C0188030001210BD70B504003A
:1003B000080015001100FFF7DDFF4210274B9C4697
:1003C000624493105B43DE121021685E46430E21A7
:1003D000685E50434000801980100C26A95F090414
:1003E00040180A216E5E59137143C9100826AB5F8D
:1003F0005A4352108918891480231B029C46614479
:10040000EB885943C91322D00013041963011B1B45
:100410009800001984000019840000194042104B14
:10042000C01816D4400001F017FD1623EA5EC30879
:100430005B43590B51430913820814242B5F534328
:100440005B13C9181222AB5EC918091109180800FC
:1004500070BD01F001FD4000E7E7C0460006FFFF68
:10046000000050C3F0B58BB0050004AC0027049722
:100470001422002105A802F053FC0F226A448823AD
:1004800013702B4E873B00937621300006F060FFFF
:100490000097182322007621300006F065FF63786C
:1004A0001B02227813432B80E3781B021BB2A27835
:1004B00013436B8063791B021BB222791343AB8019
:1004C000E3791B02A2791343EB80637A1B021BB210
:1004D000227A13432B81E37A1B021BB2A27A1343C5
:1004E0006B81637B1B021BB2227B1343AB81E37BDB
:1004F0001B021BB2A27B1343EB81637C1B021BB26A
:10050000227C13432B82E37C1B021BB2A27C13438D
:100510006B82637D1B021BB2227D1343AB82E37DA2
:100520001B021BB2A27D1343EB820BB0F0BDC04691
:10053000B80C0020F0B58DB003F0E0FD96218901E4
:10054000604801F049F90221042000F0DBF80221A3
:10055000052000F0D7F8022000F00AF9D0252D067A
:100560000423AB6200220121022000F0E5F8564F7F
:10057000564C3900200001F04DFB0300544E009111
:100580003A002100300003F0EDFD4227FF3739002B
:10059000200001F045FB030000913A0021003000EB
:1005A00003F0E0FD4B494C4806F0B4FC012110205B
:1005B00000F0A8F80521112000F0A4F80121122074
:1005C00000F0A0F80121132000F09CF880239B028A
:1005D0006B626B614149424806F084FE03210420AE
:1005E00000F090F80321052000F08CF80022012192
:1005F000042000F0A1F800220121052000F09CF861
:1006000000F028FE040001F055F8364A00231218C5
:100610004B41002B51DB00210291019132490091A5
:10062000200000F085FEFFF757FE06A8FFF71AFF2F
:10063000FA2000F04FFF2D4803F094FD192000F040
:1006400097F8D0231B06802292045A6204A905A8B9
:10065000FFF762FE059D06A92800FFF79EFE040035
:1006600006AA29000498FFF7A1FE02F075FA2049B6
:1006700002F053FA02F092FA02000B001D4803F058
:1006800071FD200002F068FA1B4902F046FA02F000
:1006900085FA02000B00194803F064FDD0252D06F1
:1006A0008026B6046E61FA246400200000F012FF78
:1006B000AE61200000F00EFFC8E701225242104B4D
:1006C000A9E7C04600800340BFFEFFFF40E20100F3
:1006D000F874001040420F0000C00340A0860100E3
:1006E000B80C002080841E00D10200101475001088
:1006F00000002041207500100000C842387500102D
:10070000FFFFFF7F10B58300084A9A181268402443
:100710005440C0222240064CA44663441A60C000E4
:10072000044B9C466044416010BDC04604C001407B
:1007300004D001400040014080000C4B9C466044C6
:1007400000290ED00823002A0DD00422134302688A
:1007500053400C22134080225201944660440360AF
:1007600070470023EFE70022F0E7C04604C00140D5
:1007700010B501238340D0221206936293610521B4
:10078000FFF7C0FF10BD000010B58023DB0518681F
:100790000205120D030B1B041B0C09498A4203D1ED
:1007A000022B07D1000F10BD064B074A2221074834
:1007B00003F068FB064B044A2321044803F062FB64
:1007C0002709000048750010B87500106C750010FE
:1007D000A47500100FB400B583B0084803F092FC74
:1007E000049B002B07D005A90191180003F09AFC87
:1007F000034803F087FC012003F03EFBCC7500109A
:10080000DC750010EFF3108072B6034B1B68002BF1
:10081000FBD0BFF35F8F70472C0100D0BFF35F8F19
:10082000024B00221A6080F3108870472C0100D020
:10083000F8B506000C001500FFF7E4FFE308F71811
:10084000F15C07222240012393400B4205D1DBB229
:100850000B433B70FFF7E2FFF8BD21002800FFF7D4
:10086000B9FFF0B583B00600019114001F00FFF737
:10087000C9FF00E00134BC420CD8E308F518F35C72
:100880000721214001228A401A42F3D1D2B21A43F1
:100890002A7001E001246442FFF7C0FF002C02DB54
:1008A000200003B0F0BD019B002BF9D00898FFF7A2
:1008B00091FF0000054A1078431CDBB21370172B20
:1008C00002D9130010221A707047C046F80B00209E
:1008D00000B583B00100044B00931F231822034886
:1008E000FFF7BFFF03B000BDE075001088160020C1
:1008F000002307E0054A9A189200BFF35F8F00219A
:10090000116001331F2BF5D97047C04640000034F9
:10091000074B9B68103080001950BFF35F8FBFF307
:100920005F8F044B0021196082F310887047C04626
:1009300000ED00E0240100D00048704700E400E032
:1009400010B5FFF7F9FF002302E0034A04C00133AA
:10095000072BFAD910BDC0468080808010B5091AD7
:10096000081F0B4B9C4661440A4A914208D8C307B2
:1009700006D440104005400D074B184380B210BD0F
:100980000221064B064AFF31064803F07BFAC046B7
:10099000FC070000FE0F000000E0FFFFFC750010E8
:1009A000F87700102C76001001238340034A10686A
:1009B0001840431E9841C0B27047C04600E100E0B5
:1009C000002A05D0044BC02252009950196070478C
:1009D000014A8023D150FAE700E100E010B50A0097
:1009E0001F230340012199404009FFF7E9FF10BD93
:1009F00001238340014A13607047C04600E200E0D3
:100A0000024B9B6810308000C058704700ED00E03A
:100A100010B5FFF7F5FF002805D0054BC01A2F28A9
:100A200003D8012010BD0020FCE70020FAE7C046F3
:100A3000FC0B002070B504000D00EFF3108672B6B9
:100A40000C4B1B68002BFBD0BFF35F8F2000FFF720
:100A5000D7FF094B984201D0A84205D132002900A6
:100A60002000FFF755FF70BD044B054AE121054802
:100A700003F008FA240100D0CD01001060760010C8
:100A80002C7800102C760010F0B5DE4657464E4606
:100A90004546E0B589B0814601911500EFF3108B12
:100AA00072B6754B1B68002BFBD0BFF35F8F734B87
:100AB0000027DF57002F3FDB7C00E419A4007048BB
:100AC00024180622A2566D4B1A706E4B9A684B463C
:100AD00010339B00D35898461B1A2F2B3AD96A4BD8
:100AE000984530D105AE694B33807B009A46D819C2
:100AF0008000634B9846404402306549FFF72EFF63
:100B00007080644BB380FF23B371F571019B079331
:100B10005744BF0047440ECE0EC701231C43A046D6
:100B20005A4641464846FFF7F3FE09B0F0BCBB46C3
:100B3000B246A946A046F0BD6E21574B574AFF3139
:100B4000574803F09FF9BA21564B544A490054487C
:100B500003F098F9012342469A439246101A0C2159
:100B600001F07AF900290FD153460026DA79AA421A
:100B700012D90621595600290DDB4A00521892005D
:100B80001E003F4B9B18F1E78621474B434AFF313C
:100B9000434803F077F91E00002E3BD005AB434AD3
:100BA0001A80813A5A800623F3560293002B17DAF3
:100BB0003F4805AB9A469880029A9A71DD71019A76
:100BC0000792301D2100FFF7C9FEB080B7717B008E
:100BD000DB199B002A4FFF18534607CB07C79FE737
:100BE0007800C0198000264BC0180430321DB3882D
:100BF000D90A1C2907D15B05591502314900511842
:100C0000FFF7ACFED5E710212A4B2B4AFF312448D1
:100C100003F038F905AE1D4B33807B000293D819E1
:100C20008000174A9046020042440392901C1849E3
:100C3000FFF794FE7080039A101D5146FFF78EFE59
:100C4000B0801E4B52464146521A524153431B0D2F
:100C5000B371F571019A0792029B9C466744BF00ED
:100C600047440ECE0EC7114B52461380813B538032
:100C700001231C43A04653E7240100D03D1D002062
:100C8000FC0B002000ED00E0CD01001000A1FFFFF3
:100C90002C0C002001BDFFFF987600101478001086
:100CA0002C760010C0760010E87600100148000095
:100CB00001BD00006C77001004780010AAAA0000A3
:100CC00070B5012101432C4BCB1A2F2B28D8EFF301
:100CD0000583002B2AD0EFF3108C72B6274A1268D6
:100CE000002AFBD0BFF35F8F254A0400224D641B0E
:100CF00064416243120D54B2224A92689B00D2585A
:100D00008A4219D00022032A30D853009B189B0036
:100D10001949CB189B795BB2A3421DD00132F2E78F
:100D2000194B1A4A1A491B4803F0ACF81A4B174AD8
:100D30001A49184803F0A6F8124A92681849D15087
:100D4000184B1A7882711C70BFF35F8F0B4B002217
:100D50001A608CF3108870BD0D005300991889003B
:100D60006918FF268E71104A8A80E9E70F4B074AFF
:100D70000F49084803F086F8FC0B0020240100D03E
:100D8000AAAA000000ED00E084770010DC770010D4
:100D90006E0200002C760010AC770010710200008B
:100DA000CD0100103D1D002001BDFFFFB8770010F0
:100DB0008202000000B583B00100064B00930523BA
:100DC00000220548FFF74DFD002801DB1F23181AFC
:100DD00003B000BDC0770010411D0020024B9C46AF
:100DE00061448900016070474000003410B5040080
:100DF000FFF760FD01002000FFF7F0FFFF232371E4
:100E0000BFF35F8F10BD10B50400FFF753FD010065
:100E10002000FFF7E3FFFF23237100236371BFF37B
:100E20005F8F10BD10B50D4C09E00D4B0D4A1A2116
:100E30000D4803F027F82000FFF7D8FF08340B4BCC
:100E40009C4209D22368002BF5D0012BEDD1200064
:100E5000FFF7D9FF0834F2E710BDC046C00C0020F0
:100E6000487800101079001068780010C80C002035
:100E7000034B9C46614489000160BFF35F8F70475C
:100E80004000003410B504000120FFF721FD0100EF
:100E90002000FFF7EDFF10BD00040843704700007D
:100EA0000A4B1A68EFF3108172B61368002BFCD05E
:100EB000BFF35F8F054B1B68BFF35F8F00221A6083
:100EC00081F3108840BF002000217047181D0020CA
:100ED000F0B5DE4657464E464546E0B585B0EFF3E1
:100EE000058303221A4093469200AE4BD35898468E
:100EF0001B785B4507D101235A4693401A000393A0
:100F0000A94B1A6012E1A94BA94A9221A94802F003
:100F1000B9FF5B004B44DB004246526992469A445B
:100F200053469E68DF68A44800F092FB801BB941DD
:100F3000002900DA04E1002F60DB53461C699F4B57
:100F40009C4244D043460820185E5346598889B2D3
:100F5000FFF7A2FF53465969A04704000D00230084
:100F60002B434BD0002D3CDA30003900001BA94147
:100F7000009001915346009801999860D96000252E
:100F80005D5F002D00DADBE043465C696B005B19B6
:100F9000DB00E3189A68DB68801A9941002900DABF
:100FA000CEE043461D81474608370023FE5E002EF3
:100FB0001FDB7500AD19ED006519009A019BA8684B
:100FC000E968121A8B41002B13DB2F00EDE7534623
:100FD0005C6920002369984700280FD06568246861
:100FE000BDE7754800F034FB00196941009001919C
:100FF000C0E753461E804B463B80A1E0534600228B
:101000009B5E424613811269EFF3108372B611683A
:101010000029FCD0BFF35F8F42460221525E514649
:101020000A804246494651801269BFF35F8F002112
:10103000116083F3108883E043461A69EFF310814F
:1010400072B61368002BFCD0BFF35F8F43469B88BA
:101050001BB2994601235B42424693801369BFF35A
:101060005F8F00221A6081F3108818E026000023A9
:10107000F55E002D0BDB6C006419E4003C19009A4E
:10108000019BA068E168121A8B41002BEEDA4B46F7
:101090003380634600229B5E994663461D804B4623
:1010A000002B53DB43465F694B465B004B44DB0040
:1010B0009C46BC446346DC689B68009301944646AA
:1010C0000836D4E70023424693714146083143462F
:1010D0000820185E11E001225242D317A260E3609B
:1010E000434608229B5E834206D00D804346082279
:1010F0009B5E2380434618812800431C2AD0434628
:101100005A6943001B18DB00D418D55E63881BB2F4
:10111000002BE0DB2100EFE76B1C2BD1264800F011
:1011200097FA241A8D41002D34DC31D0224B039ADA
:101130005A63434608229B5E9946002B00DBE8E693
:1011400043469B881BB2002B00DB75E743469B7927
:10115000002BB7D1434608229A5E002A1ADB5300BF
:101160009B18DB0042465269944663449C68DD68E4
:10117000631CD1D0104B996A601A5A46043292000F
:10118000D3585B1A9842C9D213000B4A9C50C5E74A
:10119000002CCBD040BF05B0F0BCBB46B246A94640
:1011A000A046F0BDFC1A00203C70054024790010D8
:1011B0000C7A00105079001000400540D10E00104C
:1011C000F8B5CE46474680B50600884691461F00D2
:1011D000C160FFF76FFB1B4B9C4660448000306191
:1011E0004B463370BBB27381D022120612787270F4
:1011F000012252423281B2809B187380002406E0A3
:10120000631E65002D19ED00726953530134BC4211
:10121000F6D34B469A000C4BD65001244B469C40CB
:1012200043461C6209494846FFF704FC0121484631
:10123000FFF7D4FB064941440C60C0BCB946B04638
:10124000F8BDC04640000034FC1A0020D10E00104A
:101250003820000010B5064B1B69002B01D0044854
:1012600010BD044B044A6521044802F00BFEC04641
:10127000440C002080790010F4790010507900109F
:10128000F0B5C64600B504000069EFF3108C72B6E5
:1012900001680029FCD0BFF35F8F0221665E7500F4
:1012A000AD19ED00616988464544002E02DB00203F
:1012B000295E61802169BFF35F8F002008608CF395
:1012C0001088002E2EDB0699296107996961AA60B2
:1012D000EB606B8801335B04590C002B00D10121BA
:1012E00069803000FFF7D8FD2269EFF3108172B6F4
:1012F0001368002BFCD0BFF35F8FA3882B80A680E0
:101300002369BFF35F8F00221A6081F31088E368BE
:10131000217801328A4005498C4663441A6080BCBA
:10132000B846F0BD01204042F9E7C0463C2000002D
:1013300070B582B0060014001D0008AB1B78002BAE
:1013400007D100F0B7F922002B00121A8B41002BB5
:101350000ADB079B0193069B009322002B003000C1
:10136000FFF78EFF02B070BD0020FBE710B5030051
:1013700008145A8990422FDA42001218D200586994
:10138000844662441C69EFF3108C72B62068002812
:10139000FCD0BFF35F8F508880B20904090C8842EB
:1013A00012D000201A69BFF35F8F002111608CF307
:1013B0001088002811D0DA681B7801319940074B5A
:1013C0009C466244116008E00549084380B25080A1
:1013D00001229A710120E5E7002010BD3C200000A9
:1013E0000080FFFF40787047F0B585B006000F0021
:1013F000EFF30583002B1AD106246442E517A419E4
:101400007D418D4202D803D1844201D900240025B8
:1014100000F050F922002B00121A8B41002B0BDC3C
:1014200008D03000390000F057F905B0F0BD1C4875
:10143000FFF7D0F9002AF4D0FFF70CFF0023029346
:101440000193184B009322002B00FFF771FF002837
:1014500018DAE6E7002300E00023002BE1D1124B6D
:101460001A68EFF3108172B61368002BFCD0BFF33B
:101470005F8F0D4B1B68BFF35F8F00221A6081F3F3
:10148000108820BF094B5B6A9D42E5D80749896AED
:10149000A14203D29D42DDD00123DEE70123DCE738
:1014A000A4790010A10E0010181D00200040054076
:1014B00070B504000D0000F0FDF800196941002925
:1014C00002DBFFF791FF70BD012040420049F8E7C1
:1014D000FFFFFF7F10B5FA2292000023002101F0E8
:1014E000F5FAFFF7E5FF10BD70B584B005000C00FC
:1014F000EFF30583002B12D03E4B5B6A8B4209D37E
:101500003C4A926A824208D28B4201D0012002E01A
:10151000002000E0002004B070BD0120FBE7FFF7D1
:1015200099FEC16803788A6A2E00A81A04339B00CA
:101530005B589B1A984212D320BF2E4B5B6A9C4289
:1015400009D82C4A926A954207D99C4201D00120C1
:10155000E1E70020DFE70020DDE70120DBE7FFF720
:1015600079FE002302930193234B00932A0023006A
:10157000FFF7DEFE051E0BDD1E4B5B6A9C421BD88F
:101580001C4A926A96422CD99C4213D0012314E043
:10159000184B5B6A9C4209D8164A926A964207D950
:1015A0009C4201D00120B6E70020B4E70020B2E75A
:1015B0000120B0E7002300E00023002B00D120BF72
:1015C000FFF748FE2900FFF7D1FE0A4B5B6A9C42F9
:1015D0000BD8084A926A964209D99C4203D001204E
:1015E00099E70123E9E7002095E7002093E7012030
:1015F00091E7C04600400540A10E0010004870472A
:101600000040054010B50B4B1B69002B04D00A218C
:101610000948FFF7E3FB10BDFFF7F0FF04000321CB
:1016200000F00CF81023032221000248FFF7C8FD48
:10163000EDE7C046440C0020181D002010B5024AFA
:101640000248FFF7F5F810BD247A00108C16002030
:101650000200436A906A1900536A9942FAD17047AE
:10166000416A00E0416A9942FCD300E0416A994234
:1016700002D1816A9142F9D37047F0B5C64600B5F0
:10168000804614001D00FFF7E3FF06000F00220054
:101690002B0092197B41994202D804D1904202D981
:1016A00001225242D3174046FFF7DAFF80BCB8460A
:1016B000F0BD000010B50248FFF7CAFF10BDC046DC
:1016C0000040054010B502000B000248FFF7D5FFAF
:1016D00010BDC0460040054010B502000B00024896
:1016E000FFF7BEFF10BDC0460040054070B5046B5B
:1016F000E30701D4200070BD0B4BC3180B4A1A60DE
:10170000456A826AAD01AD18AD02062000F026F9E7
:10171000074900F0A1FB0100280000F09DFB00211B
:10172000FFF7D0FFE6E7C0463030000001030000BD
:101730004E0E000070B504000E001500FFF7D6FF36
:10174000E16A4E403540024BE3181D60206370BDD6
:101750002C10000070B505000C00062000F0FEF80B
:10176000C000210000F078FB0130C60907D00E4B05
:101770009E4215D8400834003F26064000E0012470
:101780006C62AE62002200212800FFF7D3FF062022
:1017900000F0E4F88000A101891900F05DFB70BD44
:1017A0000026024CECE7C046FEFF0000FFFF0000F1
:1017B000002909D00A22064B9C4660444342584106
:1017C0004000044BC252704780225200F3E7C046EB
:1017D0000080FCBF241D002070B505000C00062011
:1017E00000F0BCF8002828D0164B9D4226D01622C7
:1017F00001239340144A1360124B9D4220D01623BC
:1018000001229A40114B1A60114B1B681100994339
:10181000FAD100212800FFF7CBFF21002800FFF7B5
:1018200099FFEB6A70225A407E231340094AAA1896
:101830001360094B2B630323AB6470BD1722D7E7FA
:101840001723DDE70080034000E0004000F0004087
:1018500008C000402C10000001030000F8B5D64677
:10186000474680B506000D0017009846440024182E
:10187000A400294B9C4664446368089A934200D2B2
:101880006260331FDBB29A46012B2ED980221201EF
:10189000C0239B01E3181A60B300204A995800291D
:1018A00007D0506900F0D8FA431C5800C01803381C
:1018B000FDD27F0122685740E022174080235B0160
:1018C000E3181F605246012A1AD980239B01E318AE
:1018D000802212011A60089B6360B6000F4B4246DB
:1018E000F250C0BCBA46B046F8BD012DCED103229D
:1018F000C0239B01E3181A60A368DB07FCD5D8E777
:101900002168694003220A401A60A3680122AA40A4
:101910001A42FAD0D9E7C046008000409016002055
:10192000F0B583B005000E0017001800089900F00C
:1019300093FA0300089A140200943A003100280038
:10194000FFF78CFF03B0F0BD10B582B080246400B7
:101950000094FFF783FF02B010BD00008000014B30
:10196000C058704790160020F0B5C64600B5040078
:101970000E0017001D00364800F06EFA8046354B09
:10198000FA18354B9A4238D80100380000F064FA52
:101990000200103A98235B009A4234D86B1E062B43
:1019A00037D8069B013B062B33D83F09474536D332
:1019B0002D04069B1A0315432368002B35DB274BA8
:1019C0009C4243D00C2301229A40254B1A60254BA0
:1019D0001A60254B1B6811009943FAD12660A0605C
:1019E000224BE218212313602368002BFCDAE56008
:1019F0000823136080BCB846F0BD1D4B1D4A112161
:101A00001D4802F03FFA1D4B1A4A19211A4802F0EC
:101A100039FA1B4B174A1C21174802F033FA194BAD
:101A2000144A2321144802F02DFA22683F23134060
:101A3000B342C4D1A3681B051B0D8342BFD1E36829
:101A4000EE22D2021340AB42B9D1D3E70D23BAE75D
:101A5000001BB70080E84BD380F8A93200C00240D9
:101A600000E0004000F0004008C0004004300000EA
:101A7000487A0010507B0010987A0010CC7A001041
:101A8000E87A0010347B0010024B1A68024B5A604F
:101A90007047C046EC1A00200080054010B5184B76
:101AA0008022D2051A60174B174A1A6000290AD003
:101AB000164BE022D2041A60002809D1134B802271
:101AC00012061A6010BD0E4BE022D2041A60F3E732
:101AD0004201121A93001B18DB000D4A13605B00D1
:101AE000136080225204934202D3094B094A1A60C0
:101AF000FFF7CAFF054B8022D2051A60E2E7C04615
:101B000000B0054008200140FCFF010000A0054096
:101B1000EC1A0020FFFFFF0010B5030010000C4A74
:101B20008024E4051460002B0DD001221343094AE0
:101B3000094CD461094C5C401462516293620021EB
:101B4000FFF7ACFF10BD034B0022DA61F7E7C04698
:101B500000B0054000800540D3C007B02D3FF84FCE
:101B600080239B000B43014AD362704700800540ED
:101B700010B5010018231B8814221088984710BD47
:101B800010B5010018231B8816221088984710BD35
:101B9000F0B5C64600B507000E00002501239846A3
:101BA00000E00135B5420AD2AC003C192068FFF7CD
:101BB000DFFF20600028F4D100239846F1E740467B
:101BC00080BCB846F0BD000070B504000D000648AA
:101BD000FFF7CEFF0300002C03DB0120A04029000B
:101BE00098470020FBE7C04655420000064BAA225A
:101BF00012011A602F22DA60044B054A1A60024B68
:101C00005B68002BFBDA7047004002400060024036
:101C100000B0FA00014B9866D96607E0000000D0DA
:101C2000014B1866596601E0000000D0FFE7FFE7AE
:101C3000FFE7596F186F704710B5040001E008CC3A
:101C40009847024B9C42FAD310BDC046EC7400107A
:101C50007047000010B50248FFF7EEFF10BDC04608
:101C6000B0740010054B064A1A60064B064A1A600B
:101C7000064B1A68044B9343FAD1704700E00040CA
:101C8000BFCDFBFE00F00040FE7F3C0008C00040DE
:101C9000044BDB6C002B03D1034B8022D2021A6071
:101CA0007047C046000011504C201150044B054AAB
:101CB0001A60054B1B68DB43DB01FAD17047C04655
:101CC00000F00040FFFFFF0108C00040034B40222E
:101CD0009A675A671A67DA667047C04600F0014093
:101CE00010B5FEF705FE10BD70B5044CA168044D9B
:101CF000C022280001F01AF8A56070BD00ED00E0D8
:101D00000000002070B50420FFF728FE064900F00F
:101D1000A3F805000024002C00DD70BDE0B229000E
:101D2000FFF71EFF0134F6E740420F0030B583B0E5
:101D3000274B00229A67FFF759FF264B01221A60B2
:101D4000234B5B6C012BFBD1234B03221A60204BEE
:101D50009B6B012BFBD10133009304331F4A0121FC
:101D60001F48FFF701FE052300931E4A01211E486C
:101D7000FFF7FAFD1D4B002202210420FFF7E4FDCE
:101D80001B4D2B00002201210520FFF7DDFD194C22
:101D90002300002200210720FFF7D6FD23000022A8
:101DA00000210820FFF7D0FD8023DB0000932300F3
:101DB000002200210920FFF7B3FD2B0000220021A3
:101DC0000620FFF7C1FDFFF79DFF03B030BDC04601
:101DD000008000403CB0004030B00040002F685907
:101DE00000800240008C864700C00240001BB70004
:101DF00040597307006CDC0201480421014B18476D
:101E0000600C0020911B0010124A936F9B0815D2A2
:101E10009066D166002905D0FFE7FFE7FFE7516F25
:101E2000106F704704B580210906C2175140002881
:101E300000D0C84305F0FCFA002104BDF0B5146ED3
:101E4000556E576F166FFFF7E3FF146655665767B9
:101E50001667F0BD000000D0114A936F9B0813D2A3
:101E600010665166002905D0FFE7FFE7FFE7516FD5
:101E7000106F704704B5002801D00020C04305F062
:101E8000D7FA002104BDC046F0B5146E556E576FE9
:101E9000166FFFF7E5FF1466556657671667F0BDC6
:101EA000000000D094464A4A926F9208624601D2DE
:101EB00028E0C046F0B5464E346E756E776F366FCB
:101EC00000F020F89446424A146655665767166734
:101ED0006246F0BD94463E4A926F9208624601D235
:101EE00054E0C046F0B53A4E346E756E776F366F7B
:101EF00000F04CF89446364A1466556657671667E4
:101F00006246F0BD002B24DB11D000293EDA00B57B
:101F1000C943404200D1013100F038F8C943404282
:101F200000D10131DB43524200D1013300BD002A10
:101F3000EBD1002801D1002905D00020C90FC90725
:101F400001D1C043410800B505F06AFA0022002320
:101F500000BD00B500290ADBDB43524200D101334A
:101F600000F014F8C943404200D1013100BDC9431B
:101F7000404200D10131DB43524200D1013300F035
:101F800005F8DB43524200D1013300BD002923D1C3
:101F9000002B18D1002A0CD0BC460D4F38667A664B
:101FA00000210023FFE7FFE7FFE77A6F386F6746FE
:101FB0007047002801D00748010000B505F030FA4D
:101FC0000022002300BD02000B000020002170470A
:101FD000000000D0FFFFFFFF002B00D0BFE0130C7C
:101FE00028D1002AE7D080B4114F39667A66FFE71E
:101FF000FFE730B4040C7B6F396F1B0423433B664F
:102000007A66FFE7FFE7FFE7C04684B27B6F3D6F6C
:102010001B0423433B667A66FFE7FFE7C0460023C5
:102020002C042D0C7A6F386F00196941B0BC7047D1
:10203000000000D0F0B594460025140E01D1120224
:102040000835140F01D112010435940F01D192000B
:102050000235D40F01D152000135D40B0134254F84
:102060007C66254C3C660E0C93B2FFE7FFE7FFE76A
:102070003C6F6643360C7703BE467343DF0B5B044D
:10208000C01AB941130C7343DB18C91ACE08664352
:10209000360CB64493B273431F0F1B01C01AB941EB
:1020A000130C73431F0B1B05C01AB941860D8F0219
:1020B0003E436643360C092D24DB520A7243801AD4
:1020C0007703460A6643360C16235B1BDE40DF406F
:1020D000BF1964466643821B70460435063301000F
:1020E000D940A840C01900D30131A24206D2002332
:1020F000F0BD0000000000D0FFFFFFFF121B013009
:10210000F3D3F1E709277F1BFE406446A2B2724376
:10211000801A00D20139220C7243130C1204821A65
:1021200099410B007046043513370100F940A8406F
:10213000801900D30131002B02D1A2420AD2F0BD96
:10214000013000D30131121BFAD2013BF8D1A24277
:1021500000D2F0BD013000D30131121BF7E7F0B51A
:102160001C0C00D080E00CB400251C0A04D11B021A
:10217000160E3343120208351C0B04D11B01160F37
:102180003343120104359C0B04D19B00960F33435B
:1021900092000235DC0B02D192185B4101351C0024
:1021A000971864410134464F7C66464C3C660E0CE1
:1021B000FFE7FFE7FFE7C0463C6F6643360C770357
:1021C000BE4697B27743C01B00D20139C01B00D274
:1021D00001399FB27743C91BC91B170C77437E0493
:1021E000FF0B801BB941CE086643360C0C2D33DB48
:1021F000B644120B1F053A431B0B97B27743C01B23
:1022000000D201399FB27743C91B170C77433E04B4
:102210003F0C801BB941860D8F023E436643292740
:102220007F1BFE400C3D7746AF40BF1930BCA2B2C9
:10223000ABB272437343801A9941220C7243130C60
:102240001204801A994102000B000137001BA941BA
:10225000F9D2781E0021F0BD0C277F1BFE40774687
:102260007F0BAF40FF19E0E700245D1C07D0144F3F
:102270007D663966FFE7FFE7FFE7FFE73C6F95B252
:102280009EB265436643401BB141150C1E0C65436D
:10229000664336042F0C3E432D04401BB141994246
:1022A00004D202000B0020000021F0BD01D19042B9
:1022B000F7D3801A994101349942F2D3F6E700002E
:1022C000000000D0FFFFFFFF48404140484018B4E5
:1022D0001B4B5B68FC46019308BD04DF9F25001083
:1022E00018B4174B1B68FC46019308BD00DFA925F5
:1022F00000109446134A926F920809D2624618B4AD
:102300000F4BDB68FC46019308BD0CDF6128001011
:102310000C4AF0B5146E556E576F166F6246FFF794
:10232000EEFF084A1466556657671667F0BD18B485
:10233000034B9B68FC46019308BD08DF052700108E
:10234000141B0020000000D0FFB550404240504018
:1023500059404B40594000E0FFB5154F4C00640D0B
:1023600003D0BC4204D10C0314D80020090D090588
:102370005C00640D03D0BC4204D11C030AD80022C7
:102380001B0D1B0501264B4009D44B4003D58B4246
:1023900000D18242FFBD9942FCD19042FFBD0B4368
:1023A000DB1803431343F5D0C9434918FFBD0000B0
:1023B000FF07000000B5FFF7CFFF804100BDC0461A
:1023C00000B5FFF7C9FF01D9002000BD012000BD05
:1023D00000B5FFF7B9FF01D9002000BD012000BD05
:1023E00000B5FFF7B1FF804100BD012040054A0064
:1023F000121804D85A00121801D800207047012082
:10240000704700000021002805D17047C1174840DF
:10241000401AFAD0C90713B5064B1B6898470CBC85
:10242000441CA2401005120B0349091B090519435E
:10243000114310BD141C00201F04000010B54C00F7
:10244000620D8023D218DB00D21A5B057E2A10DDD4
:102450009E3A13DACC170903490819435242D14076
:10246000640001341532202A05DAD0400843604365
:1024700010BD002010BD0846604310BDC80FC01835
:10248000013810BD18B4044B5B6AFC46019308BDCB
:1024900024DF112A00100000141B002070B5132344
:1024A0001C78012C14D0012C14DC022C02DC1F4AF5
:1024B0001F4B9A641F48FFF75BFB1F4B186070BDF2
:1024C00099001A481A4A885001331F2BF8D9EAE7B5
:1024D0000023FAE71948FFF753FB05001848FFF7F8
:1024E0004FFB023803789B007F2B19DD80222900E7
:1024F0000F4800F01BFC022CD7D1124B1A88B523D1
:102500001B029A4209D1104B1A88104B9A4204D1EF
:102510000F4B1A880F4B9A42C7D00020FEF75AF98A
:102520000D4B0E4A33210E4801F0ACFC652500101E
:10253000141B00204C330000141C002053440000E6
:102540005346000054380000D838000049460000C7
:102550009C380000594600005C7B0010E87B0010AE
:10256000A07B001007B56046002800D100BE01889E
:102570000A0A0230DF2AFAD1C9B2820804D30288DB
:1025800040880004104300E00068024A5050039065
:1025900007BD0000141B00200FB403BC0CBCF0B539
:1025A0000124E407634000E0F0B50C0DCF0F661E78
:1025B0003605891B640503D3C943404200D301316A
:1025C000640D03D0661CF60A07D0E41B00207F00D0
:1025D000791C89078912803C24031D0DDF0F6E1EB4
:1025E00036059B1B6D0503D3DB43524200D30133F9
:1025F0006D0D03D06E1CF60A07D0ED1B00227F0084
:102600007B1C9B079B12803D2D032F1B661B58D400
:10261000A446202E46DA20371400BC401D00BD40E1
:10262000F24033412A4380185941CB0F05D0C943AA
:10263000C043002264425041514162464D0D28D1B1
:102640000D0D07D100281FD0241940414941013AFE
:102650000D0DF9D0640006D3013000D30131002CF8
:1026600001D140084000013A0BD4941CE40A04D183
:1026700012051144DB071944F0BDD907204B19435B
:1026800000E0D9070020F0BD0029DDD1002CDBD10E
:10269000F0BD0132C6074008CD0728434908002E87
:1026A000E1D0D9E73C2E29DA203E40371400BC4067
:1026B00000D00124F24014431A00BB401C43D3173E
:1026C000ACE7AC46202F08DA20360400B4400D00F9
:1026D000B540F84039412843A5E73C2F0CDA203FAC
:1026E00040360400B44000D00124F8400443080000
:1026F000B1400C43C117EAE710001900002494E729
:102700000000F07FF0B50C0D661E3605891BE60A49
:102710006405640D02D0651CED0A04D0002001217F
:102720000905803C2403A4461C0D671E3F05DB1BE6
:10273000E70A6405640D02D0651CED0A04D000228E
:1027400001231B05803C24037740644497B484B282
:1027500096B27443070C7E43150C6F4380B26843F6
:10276000361802D3012000043F183004350C00193C
:102770007D41844688B29AB250430C0C62431F0CD0
:102780007C438EB27E43921902D301263604A419EB
:102790001604170C3618674101BC81B29AB2514336
:1027A000040C62431B0C5C4380B25843121802D3E2
:1027B0000120000424181004130C401863412D1844
:1027C0005E410020474106BC88B293B258430C0CCE
:1027D0006343120C544389B251435B1802D3012165
:1027E0000904641819041A0C091862416D1856413D
:1027F0000020474118BCF902720D1143F0026A0D26
:102800001043ED020A0D03D16D1940414941013BCE
:10281000124E9B1B7600B3420ED26D0007D30130DF
:10282000002671416646354301D1400840001B0532
:10283000C918E4072144F0BD0BDA013306D1013099
:1028400004D101314F0D01D04908F2E7E107002022
:10285000F0BD013631050020EBE70000FF0300006A
:10286000F0B51C0D671E3F05DB1BE70A6405640D10
:1028700002D0661CF60A04D0002201231B05803C0E
:102880002403D0252D060026F6432E661E096E660B
:10289000CE0FF619B44649004F0D02D07E1CF60A41
:1028A00003D000200021403F3F033E1BB600B4444C
:1028B000013F7F05C91B49082E6F013676089C022F
:1028C000950D25437543ED137543AD1301356D101B
:1028D000F603761B0CB4CC02450D2C43A2B2B3B266
:1028E0005A43270C7B43350C6F43A4B26C431B192E
:1028F00002D3012424043F191C041D0CA4187D419B
:1029000024196D41009A91B2ACB26143170C7C431B
:102910002B0C5F4392B25A43A41802D30122120433
:10292000BF182204230C52187B41019C6C431B19D5
:10293000520ED9010A434401A01A81B2B2B25143E6
:1029400003145A43360C734387B27743D617D21910
:1029500000277E4136049B191704160C7F185E4130
:102960007316ED18F301002680337541A90F06D1C7
:102970006400690AE8055B0A184309D22FE00422C3
:10298000944480337541A90AA8059B0A184326D3AD
:10299000404149412404009A019B0D005543641BAA
:1029A0004343E41A95B286B27543170C7E43030C79
:1029B0005F4392B25A43B61802D301221204BF18E1
:1029C0003204330C52197B4152429C41002C02D4F8
:1029D0000022013051414008CA071043490802B0A3
:1029E0006246D7079210084BD218084B9A4203D27E
:1029F00012058918C919F0BD0020002A01DC390030
:102A0000F0BD01331905F5E7FD030000FE070000E6
:102A1000002200B5203200F004F8080000BD0000DC
:102A200000220B150AD410B5944600F031F81414A6
:102A3000013400DA0021CB17144C2047002000217C
:102A400070476244343A0CD40C2A07DA04009140EF
:102A5000904052422032D440214310BDD843D94344
:102A600010BD203207D40C4694405242203211410E
:102A7000D040204310BD0800C917203203D4524271
:102A80002032104110BD1800190010BD432A00105B
:102A90000A0DCC0F531E1B05C91A520503D3C94397
:102AA000404200D30131520D03D0531CDB0A07D042
:102AB000121B00206400611C89078912803A1203EE
:102AC000014BD21A70470000FF03000051434343FB
:102AD000C9188C46110C83B24B4310B4040C6143EB
:102AE00092B280B2504362431C041B0C001910BC0C
:102AF00059411304120CC018514161447047000041
:102B000048404140484000239C46114B5B681847B1
:102B100000239C460E4B1B6818470E4A936F9B0878
:102B200004D200239C460A4BDB681847F0B5146EAC
:102B3000556E576F166FFFF7F4FF064A1466556619
:102B400057671667F0BD00239C46014B9B681847EA
:102B5000181C0020000000D0C10FC90700D540425A
:102B6000002817D0F44603B40B4B1B68984706BCEB
:102B700081409E384042803107D20B0607D0490081
:102B8000490AC0051043084360470130F8E7490A85
:102B90008902F5E770470000141C0020034BDB6F2F
:102BA000FC4618477CDFE12C00100000181C0020B8
:102BB00070B513231D782A48FEF7E2FF0400012DAB
:102BC00011D0012D09DDA31E1B789B007F2B40DD5A
:102BD00080222100234800F0A9F82348FEF7C8FF0F
:102BE000224B186070BD542201001E4800F09EF870
:102BF0001F4B1A881F4B9A421CD1A7239B011A888E
:102C00001D4B9A4216D11D4B1A881D4B9A4211D169
:102C10001C4B1A8894239B019A420BD11A4B1A8899
:102C20001A4B9A4206D11A4B1A681A4B9A4201D192
:102C3000152307E01848FDF7CDFD99001748094A0C
:102C4000885001331F2BF8D9144A064B1A62DA61F7
:102C5000B7E7134B134A4221134801F013F9C0465A
:102C600053460000181C00204C330000141C0020A8
:102C7000EE290000C40F0000C20D0000962B0000DA
:102C8000C0B50000182B0000CC2A000010B50000D1
:102C9000FC2C000051ED876434750010AD2C001041
:102CA000FC7B0010747C0010307C001007B560467F
:102CB000002800D100BE01880A0A0230DF2AFAD1BA
:102CC000C9B2820804D3028840880004104300E09F
:102CD0000068024A5050039007BD0000181C0020F5
:102CE000C30FDB0741000A0E07D0FF2A08D00909ED
:102CF000054A89181943400770471900002070479A
:102D00000249C918FAE70000000000380000F07F0F
:102D100001480421014B1847700C0020911B001042
:102D2000014B1B6818470000700C0020014B5B68CA
:102D300018470000700C0020704710B5002802D022
:102D40000B684968984710BD0100002007E0830028
:102D50001B185B00501C08601078C01830380A68D7
:102D60001378303BDBB2092BF1D97047F0B5DE4662
:102D700057464E464546E0B583B093461F000C9B30
:102D80009A460D9C0E9B99460F9B9B0703D0B84615
:102D90000F00060022E00192A34688464E46B9463F
:102DA0000700B44207D2551C4B4641462020B84785
:102DB00001342A00F5E73D004F465C46019B9B46E7
:102DC000B1464646B84637002E0007E0013C551C88
:102DD0005346185D43463900B0472A00002CF5D110
:102DE00035003E0047460F9B9B0707D4100003B0F9
:102DF000F0BCBB46B246A946A046F0BDB0464E4622
:102E0000B9462F005D46531BB342EFD2541C4B46CC
:102E100041462020B8472200F5E7F0B5CE464746A8
:102E200080B585B0944698460C9D0D9C0EAB1B78E2
:102E30009946109A119B129EB7071CD4002B0CD0F8
:102E4000F7070AD54F46002F02D10C37374204D07E
:102E5000013B02E030272F550134944201D21F2C50
:102E6000F8D9F70707D59C4205D21F2C03D8302785
:102E70002F550134F5E7F70615D5770505D4002C55
:102E800003D0944224D09C4222D00F9A102A2BD0F7
:102E90000F9A102A30D00F9A022A35D01F2C02D850
:102EA00030222A5501341F2C05D84A46002A31D039
:102EB0002D222A550134039602930194009543462E
:102EC0006246FFF753FF05B0C0BCB946B046F0BD3F
:102ED000621E012C06D00F9F102F01D01400D4E7E2
:102EE000023CD2E71400D0E7B206D1D41F2CCFD8D1
:102EF00078222A550134D1E7B206CCD51F2CCAD886
:102F000058222A550134C9E71F2CC7D860322A55E8
:102F10000134C3E7720703D52B222A550134CAE7CF
:102F20003207C8D520222A550134C4E7F0B5DE4661
:102F300057464E464546E0B593B081468A460892CC
:102F400009931CAB10CB1B789B461E9D219B98467A
:102F5000002C03D1102342469A4390468023DB0085
:102F600046461E4042461A4212D0002C22D000266D
:102F70000EE03033D9B2771C0AAB995529002000F6
:102F8000FEF76AFFAC4216D31F2F14D83E00040090
:102F900029002000FEF760FFCBB2092BE9D9424699
:102FA000920605D54121C918C9B20A39C9B2E2E76A
:102FB0006121F8E7270043460693209B05931F9B5A
:102FC000049303955B46029301970AAB0093099B18
:102FD000089A51464846FFF720FF13B0F0BCBB46A5
:102FE000B246A946A046F0BDF0B5DE4657464E466D
:102FF0004546E0B595B0089009910A920B931E9E44
:103000001F9C20AB1B789B46229B9946239D269BA9
:103010009A463300234303D1103352469A439246D3
:103020008023DB0057461F4052461A4219D0330016
:1030300023432DD0002714E03033DAB27B1C9846AE
:103040000CABDA554A462B0030002100FEF742FF58
:10305000A5421FD819D043461F2B1BD84746060050
:103060000C004A462B0030002100FEF733FFD3B29C
:10307000092BE1D95246920605D54122D218D2B287
:103080000A3AD2B2DAE76122F8E7B145E3D901E0C2
:103090000023984653460693259B0593249B04934F
:1030A0004B4603935B460293434601930CAB00935C
:1030B0000B9B0A9A09990898FFF7AFFE15B0F0BC70
:1030C000BB46B246A946A046F0BD0000F0B5DE46BC
:1030D00057464E464546E0B591B083468A460C9227
:1030E00098461A9C08941B9D099522002B002000ED
:1030F0002900FFF77AF9002800D0E5E001225242CA
:10310000D74B20002900FFF76BF9002800D0DBE047
:1031100001225242D34B20002900FFF74BF900282F
:1031200000D0D1E000220023089E3000099D290034
:10313000FFF740F9002800D0DDE0089809990690D3
:1031400007918023DB001E9A1A400D921E9A1A42A4
:1031500001D106231C930698079904000D000A006C
:103160000600024300D1D1E0080D4005400DBE4CE1
:10317000A44660440A03120BBC4B13431F00FFF725
:1031800045F9BB4ABB4BFFF7D2F8BB4ABB4BFFF735
:10319000A7F804000D000022B94B30003900FFF7FA
:1031A00096F8B84AB84BFFF7C2F802000B002000AF
:1031B0002900FFF795F8FFF741F98146FFF726F957
:1031C00004000D00B14AB24BFFF7B1F80022B14B39
:1031D000FFF786F8FFF732F90600AF4AAF4B200041
:1031E0002900FFF7A4F804000D003000FFF70EF9E6
:1031F000AB4AAC4BFFF79BF802000B002000290004
:10320000FFF765F804000D0002000B00FFF78FF8D0
:103210000A900B91A44BF31800261F0522002B00E7
:1032200020002900FFF75CF80E900F9122002B0080
:1032300000208021C905FFF74AF804000D00002294
:103240009A4B0A980B99FFF754F80022984BFFF716
:1032500047F802000B000A980B99FFF74AF8002282
:10326000944BFFF73DF802000B000A980B99FFF70B
:1032700040F802000B0020002900FFF731F802009F
:103280000B000E980F99FFF734F80022774BFFF7E9
:1032900027F832003B00FFF74AF806000F00040051
:1032A0000D00069A079BFFF79BF8002830D00123FA
:1032B0005B429C46E14400227D4B30003900FFF721
:1032C00018F804000D0023E01E9B04931D9B03933C
:1032D0001C9B0293089A099B0092019343460C9A07
:1032E0005146584600F0FCF811B0F0BCBB46B2465F
:1032F000A946A046F0BD0023002406930794069635
:1033000080231B069C46654407951AE700239946CF
:103310004B466333C62B1ED804261E9B1B0526D5A1
:103320002B0023430FD0644A644B06980799FFF79C
:103330004FF8002879D00022614B06980799FFF7D3
:1033400039F8002871D01C9B4B4506DD4A46981A77
:10335000431E1C9303E00526DFE700231C93802314
:10336000DB001E9A1A431E920026002399461D9BDD
:103370009E4264D29F1B02231E9A1A400A921E9AF2
:10338000134202D0002E00D000274B46002B07D05E
:1033900022002B0006980799FEF7ABFF06900791D5
:1033A0000022002308980999FFF704F8002848D163
:1033B000444B1E9A1340049303971C9B0293069B55
:1033C000079C0093019443460C9A5146584600F0DE
:1033D00087F8002E00D187E71E9B9B063DD545252B
:1033E000441C4346020051462800D8474B46DA1792
:1033F0009B18534005220592013E04960022039239
:103400000A3202924A46D00F0190009343462200AE
:1034100051465846FFF78AFD0A9B002B00D163E70F
:1034200002005F460C9E1D9D54E01C9B002B9ED00D
:103430000D9B002B9BD01C9B013B1C9397E7002707
:1034400099E7069C079D22002900802000068446FB
:1034500061440B0006920793AAE76525C0E7C046C2
:10346000FFFFEF7FFFFFEFFF01FCFFFF0000F03FDA
:10347000FB799F501344D33FB3C8608B288AC63F63
:103480000000F83F61436F63A787D23F71A37909BA
:103490004F930A400000E03F1655B5BBB16B0240A8
:1034A000EF39FAFE422EE63FFF03000000002C40F9
:1034B00000002440000018402D431CEBE2361A3F68
:1034C00080842E41FFF7FFFF541C434651462020C5
:1034D000B8472200931BAB42F6D3100004E7C04666
:1034E000F0B5DE4657464E464546E0B595B00690E7
:1034F000079193469946209F1E9A1F9B1000190022
:10350000FEF773FF002831D101225242BF4B1E98B3
:103510001F99FEF74FFF002837D101225242BC4BC2
:103520001E981F99FEF75CFF00283DD10022B94B81
:103530001E981F99FEF754FF002850D10022B64B69
:103540001E981F99FEF736FF002848D1002200235D
:103550001E981F99FEF72EFF002850D10023984691
:10356000229B5B0500D4B6E0002458E0229B039325
:10357000219B029303230193A84B00934B465A4689
:1035800007990698FFF7F2FB0EE1229B0393219B1C
:10359000029304230193A24B00934B465A4607998A
:1035A0000698FFF7E3FBFFE00423229A1A402299D2
:1035B0000B4210D09B4B002A0FD00422229903917A
:1035C00021990291019200934B465A460799069819
:1035D000FFF7CCFBE8E0944BEDE70322EEE7229BFC
:1035E0000493219B039302971E9B1F9C00930194BD
:1035F0004B465A4607990698FFF768FDD4E01E9A95
:103600001F9B00200021FEF762FE1E901F910123E8
:103610009846A5E70CAB30221A55013F01341F2C08
:1036200001D8092FF6D81E981F99FEF707FF05004D
:10363000FEF7ECFE02000B001E981F99FEF747FEF6
:10364000FA007A4B9B181A685B680A920B93FEF794
:103650006EFE08900991FEF715FF0600FEF7D2FEF8
:1036600002000B0008980999FEF731FE08900991B5
:1036700000226F4BFEF7B4FE00282ED0013630003A
:10368000FEF7C0FE02000B000A980B99FEF798FEA9
:10369000002801D001350026002F2CD12800FEF78C
:1036A000B5FE02000B001E981F99FEF710FE0600E3
:1036B0000F0000225E4BFEF77DFE002846D100225F
:1036C0005B4B30003900FEF78BFE00283ED1EB0744
:1036D0003CD501353AE0062746E70022544B0898CE
:1036E0000999FEF767FE0028D6D1002E01D0F30716
:1036F000D2D50136D0E7AA461F2C11D8013F0A21A6
:103700003000FEF7A9FB651C30310CAB19550A21BE
:103710003000FEF7A1FB092E0ED906002C00EBE7C6
:1037200055461F2C0CD87B1E002F09D00CAA302127
:1037300011551F000134F4E72B0055461C00F0E73B
:103740001F2C03D80CAB2E221A5501341F2C10D875
:103750000A212800FEF758FB661C30310CAB1955C6
:103760000A212800FEF750FB051E01D03400EDE7CA
:1037700034000323229A1340012B1CD01F2C06D89F
:103780004346002B32D00CAB2D221A550134229B1C
:103790000393219B029301940CAB00934B465A4632
:1037A00007990698FFF7E2FA15B0F0BCBB46B2469F
:1037B000A946A046F0BD219B002B13D04346002B09
:1037C00002D10C3313420FD0219B013B21931900EE
:1037D00003E00CAB30221A5501348C42CED21F2CA0
:1037E000F7D9CBE72199F8E72199F6E7229B5B0708
:1037F00004D50CAB2B221A550134C8E7229B1B07BA
:10380000C5D50CAB20221A550134C0E7FFFFEFFFEE
:10381000FFFFEF7F65CDCD4165CDCDC1407D00106F
:10382000447D0010387D0010347D0010307F001082
:103830000000E03FF0B5DE4657464E464546E0B54F
:1038400093B082468B4690461193002900D1EBE25B
:1038500000275546119B1878002800D1E7E225285B
:1038600009D07C1C43463A005946A847119B0133B6
:1038700011932700EEE7013311930024119A117878
:103880000B00203BD8B2102803D88300D048C3587F
:103890009F460B00303BDBB2092B2CD92A292FD0B5
:1038A00000230A93119B1A782E2A39D000239A46B6
:1038B000119A1378683BD9B2122976D88B00C54982
:1038C000CB589F4601231C4301321192D6E70223B5
:1038D0001C4301321192D1E704231C43013211929F
:1038E000CCE708231C4301321192C7E710231C4385
:1038F00001321192C2E711A8FFF726FA0A90D1E728
:103900001C9B1A1D1C921868002804DB0A90119B4E
:1039100001331193C6E702231C4343420A93F6E79F
:103920008022D20014435A1C11925A781300303B63
:10393000DBB2092B04D92A2A07D000239A46B7E71D
:1039400011A8FFF701FA8246B2E71C9B1A1D1C92D0
:103950001868002804DB8246119B01331193A7E706
:103960000020F8E780235B002343511C119152781B
:103970006C2A01D01C0018E0C0239B001C430131BD
:10398000119112E080232343511C11915278682A2F
:1039900001D01C0009E0C0231C430131119104E057
:1039A00080235B001C4301321192119B18780300A5
:1039B000253BDAB2532A00D92CE29300864AD35829
:1039C0009F4680239B001C4301321192EDE7802328
:1039D0005B001C4301321192E7E7782809D0582890
:1039E00038D06F2838D0622838D010239C430A265C
:1039F00000E01026582833D0692803D0642801D06D
:103A00000C229443630501D50122944369282AD0EE
:103A1000642828D0A30500D59FE0E30500D5B8E0D1
:103A2000630600D4CAE01C9A111D1C911168FF2284
:103A30000A4005940A9B049353460393029600237D
:103A40000193009243463A0059462800FFF76EFA68
:103A5000070027E01026CDE70826CBE70226C9E7B6
:103A600020221443C8E7A30520D4E30550D46306FD
:103A700066D51C9A111D1C911168FF220A40D317AC
:103A8000D118594005940A9B049353460393029618
:103A9000D20F0192009143463A0059462800FFF7A1
:103AA00045FA0700119B01331193D3E61C9BDA1DE5
:103AB00007218A43110008311C91116853689C4604
:103AC000DB170C930D930C9A0D9B100048400E9041
:103AD000624653400F930E980F990C9A0D9B801AD3
:103AE00099410E900F9108940A9B079353460693B1
:103AF0000496002305936346DA0F02920090019129
:103B000043463A0059462800FFF76EFA0700C9E716
:103B10001C9A111D1C911268D317D1185940059495
:103B20000A9B0493534603930296D20F019200918D
:103B300043463A0059462800FFF7F8F90700B1E775
:103B4000230605D51C9A111D1C910023D25E96E711
:103B50001C9A111D1C91126891E71C9BDA1D07210C
:103B60008A43110008311C9108940A9B079353461D
:103B700006930496002305930293136854680093F8
:103B8000019443463A0059462800FFF72DFA0700F2
:103B900088E71C9A111D1C9105940A9B04935346B7
:103BA00003930296002301931368009343463A005F
:103BB00059462800FFF7BAF9070073E723060DD529
:103BC0001C9A111D1C9112681204120C31E7C04698
:103BD0004C7D0010907D0010DC7D00101C9A111DA2
:103BE0001C91126825E746281AD01C9B0733072230
:103BF00093431A0008321C9204940A9A0392524684
:103C000002925C681B680093019443463A0059464F
:103C10002800FFF765FC0700119B0133119319E69B
:103C200020231C43E1E7672801D0472802D18023E5
:103C30001B011C43452801D0472801D120231C43E8
:103C40001C9B0733072293431A0008321C920494EA
:103C50000A9A0392524602925C681B680093019490
:103C600043463A0059462800FFF730FA0700119BF7
:103C700001331193EEE502231A00224092462342BB
:103C80001FD001241C9B1A1D1C927A1C9146187887
:103C900043463A005946A8475346002B16D1119B7C
:103CA000013311934F46D5E5561C43465946202013
:103CB000B847230032005C1C9D42F5D83D00170038
:103CC000E0E701233A002F000A9DF4E74A46A9469F
:103CD0000A9D06E0571C434659462020C847340039
:103CE0003A00661CA542F5D84D469146D7E71C9B85
:103CF0001A1D1C921B6899465346002B00D1013BAC
:103D00004E4601E0013613003278002A02D05A1ED6
:103D1000002BF7D14B46F21A10928023DB002600CD
:103D20001E401C4203D0524501D953461093022332
:103D30001A0022400B92234205D03A0037004C462D
:103D4000A946554620E03A00109B5F46B3462E0038
:103D500006E0551C434639002020B04723002A00C6
:103D60005C1C0A999942F4D835005E46BB46109413
:103D700037004C46A946554606E01D000134561C46
:103D800043465946C84732002078002804D0002F07
:103D9000F4D06B1E002DF0D117004D460B9B002B6D
:103DA00003D1119B0133119354E50A9F109B06E048
:103DB000561C434659462020A847230032005C1C6D
:103DC0009F42F5D81700ECE721231C431C9B1A1DCA
:103DD0001C921B6800930594082304935346039395
:103DE000102302930023019343463A0059462800CA
:103DF000FFF79CF80700119B013311932AE57C1C07
:103E000043463A0059462520A847119B0133119398
:103E100027001FE57C1C43463A005946A847119BE2
:103E200001331193270015E50A4B9A4610E5AA467F
:103E3000474502D343465A1E00E03A0043465946DE
:103E40000020D047380013B0F0BCBB46B246A946AC
:103E5000A046F0BD392D001000B585B00290039149
:103E60000121009313004A4202A90248FFF7E2FC35
:103E700005B000BD3B2D001000BEFDE710B5FFF7FB
:103E8000FBFF000010B582B00C001900002A0CD016
:103E9000084B002A0BD00192009323000200064831
:103EA00000F060F90120FFF7E7FF044BF1E7034A58
:103EB000F1E7C046807F0010907F0010347500103D
:103EC00010B5EFF30583002B00D000BEFDF7C2FE56
:103ED000034C01E008CC9847024B9C42FAD310BD3A
:103EE000EC740010F474001010B503000800110009
:103EF0001B68984710BD0000F8B507000D001600BC
:103F0000437D002B02D0002400200CE00368110048
:103F1000280098472DE03B7D10E0022115483B68C2
:103F20009847601C0134B44214DA002CF3DD2B19DD
:103F3000013B1B780D3B5A425341DBB22A5D0A2AF2
:103F4000F0D1002BEED1A042E7DA211A28183B6805
:103F50009847E2E7B04203DA311A28183B689847DD
:103F6000002E06DDAD19013D2B780D3B5A42534121
:103F70003B75F8BDC07F001070B505000368002BCD
:103F800016D00C4B1C6805E0290004C92000FFF77F
:103F9000B3FF2469002C09D02368002BF9D0064B0D
:103FA0001B68002BF0D0A342F3D1EDE700232B6078
:103FB00070BDC046E0160020E816002070B5050070
:103FC0000C000B68802B05D021684B1C2360641803
:103FD000257170BD0800FFF7CFFFF5E710B5FDF7BD
:103FE00069FB074A002312184B41002B03DB0548ED
:103FF00003F036FA10BD01225242034BF7E7C046E8
:1040000040420F00C00C0020FFFFFF7F10B50248A8
:1040100003F0F6F910BDC046C00C0020F0B5CE4646
:10402000474680B583B006000D0090461C00FFF7A0
:10403000D5FF81466B1C05D0002C08D0184F194BBA
:104040001C6807E0300003F09BF90500F4E7164F09
:10405000F5E72469002C17D02368002BF9D0134B07
:104060001B68002B01D0A342F3D12A0031002000AD
:10407000B8474346002BECD06B46D91D0A230B7082
:1040800001222000B847E4E74B46002B05D1280069
:1040900003B0C0BCB946B046F0BDFFF7B7FFF6E7C6
:1040A000F93E0010E0160020E93E0010E81600205E
:1040B000094A01E010331A001368002B08D083422C
:1040C000F8D1002907D1036913600023036102E0DE
:1040D000002900D010607047E016002010B5064B94
:1040E0001C6801E098472469002C03D06368002B0A
:1040F000F8D1F8E710BDC046E016002010B500F07A
:10410000A3F910BD70B5050003F03AF904000123CE
:10411000012201002800FFF781FFFFF7DFFF2000E9
:1041200070BD000070B5A2B004000E00FFF756FF8E
:104130000500002301933300220001A90848FFF77E
:104140008BFE040001A8FFF717FFFFF7C7FF002D44
:1041500002D1200022B070BDFFF758FFF9E7C0463A
:10416000BD3F00100FB400B583B004A901C901918F
:10417000FFF7D8FF03B008BC04B018477047000031
:10418000014B00221A7070473E1D00204B79FF2B17
:104190000CD18B79002B0BD1CB79012B0AD1082ABA
:1041A0000AD98A78054B1A70092000E00020704770
:1041B0000020FCE70020FAE70020F8E73E1D002081
:1041C0000120704710B5012928D1117953791B02BC
:1041D0000B43134909788B4201D000201FE053782C
:1041E000012B03D0022B12D0002018E09178D37855
:1041F0001B021943DB0507D5480A4A0A01231A4066
:104200007E331940FDF7E0FC01204042F5E76422CF
:1042100000210020FDF780FC012000E0012010BDFE
:104220003E1D002000487047E47F001010B51400C8
:10423000012910D15378012B0FD1127963791B0218
:104240001343072B01D0002006E09F33044A2100CE
:1042500001F02AFB00E0012010BD0020FCE7C04671
:10426000088000100123037000487047C47F0010CD
:1042700010B50B784878000218438A78120410436E
:10428000CB781B0603439622D200934200D010BD88
:104290000120002211004042FDF796FC024B1860FD
:1042A000024B19607047C04680160020841600201B
:1042B00010B5FDF7FFF90E4A002312184B41002BF1
:1042C00012DB0C4803F0CCF800280CD001200021B0
:1042D000404201F0B1F9002001F056FC0028F5D170
:1042E000044803F08DF810BD01225242024BE8E76A
:1042F00040420F001C1D0020FFFFFF7F10B5024B46
:104300001878FCF775FB10BD3F1D002010B584B078
:1043100000212B4803F094F8002821D1294B1B6879
:10432000002B1BD0274B1968EFF3108272B60B6875
:10433000002BFCD0BFF35F8F22494A6022480378EC
:1043400001246340DBB2012404700968BFF35F8F6E
:104350000020086082F31088002B17D104B010BD34
:1043600001200021404201F067F9002001F0E4FB48
:104370000400134803F044F8002CEFD0134B1B68E3
:10438000002BEBD0124A10689847E7E7FCF762FF72
:104390000400FDF78FF9FA229200002312184B4116
:1043A000002B09DB012102910021019109490091B3
:1043B0002000FCF7BDFFD1E701225242064BF1E796
:1043C0001C1D0020F41A0020401D00208016002033
:1043D00084160020DD430010FFFFFF7F70B5174BF0
:1043E0001B68002B21D0154B1968EFF3108372B6B0
:1043F0000A68002AFCD0BFF35F8F10494B6000228F
:104400000F4802700968BFF35F8F0A6083F310885A
:10441000002400250B4B1878FCF7C6FA002808D1B9
:10442000002400252000290070BDFA24A4000025E6
:10443000F0E7044B1878FCF7DBFAF3E7F41A0020F6
:10444000401D00203F1D002010B584B0D0231B0666
:104450001C68FCF7FFFEFCF7C5FFA0422CD12D4BDA
:104460001B7802F071F82C4B1B68002B2AD001201E
:10447000FCF7A0FCC0B2294C20702949FCF7DAFAFD
:1044800020780121FCF7AAFA0520FCF7C1FA041EE6
:104490001CD00120FCF71CFA01002248FCF7E8FCC4
:1044A000002221490520FCF7EFFA01211F48FFF700
:1044B000FFFD200004B010BD1D4B1E4AC1211E4847
:1044C000FFF7E0FC1448FCF791FCD0E7082200213C
:1044D0001448FEF725FCFCF7BDFE0400FDF7EAF8E2
:1044E000FA229200002312184B41002B0DDB012110
:1044F000029100210191114900912000FCF718FF61
:10450000C043C40F0028D4DACFE7012252420C4B3B
:10451000EDE7C046408900101C1D00203F1D002013
:104520000D430010F41A0020FD420010800C002002
:10453000B080001014810010B8800010DD4300101E
:10454000FFFFFF7F10B5002001F0D4FA10BD00007E
:1045500070B505000C00FFF7F5FF002834D00020EF
:1045600001F0EAFA002832D0FDF7A4F81B4A002334
:1045700012184B41002B19DB194802F071FF00287B
:1045800028D0FFF7DFFF002804D0002001F0D4FA84
:1045900000280FD101200021404201F04DF80324F2
:1045A00064420F4802F02CFF200070BD01225242ED
:1045B0000C4BE1E722002900002001F0C9FA041E9B
:1045C000EFD103246442ECE703246442ECE70324C4
:1045D0006442E9E703246442E6E7C04640420F0034
:1045E0001C1D0020FFFFFF7FF0B5C64600B58046CA
:1045F0000C00FDF75FF8314A002312184B41002BE5
:1046000007DB2F4802F02CFF002806D180BCB846FB
:10461000F0BD012252422B4BF3E7FFF793FF002836
:1046200049D1294B0020002118605960244802F02C
:10463000E7FEEBE701200021404200F0FDFF0020F3
:1046400001F0A2FAFFF77EFF0028EFD0002001F072
:1046500025FB002820D0A542E8DA661B002001F0E7
:104660001DFB0200864200DC3200002AE2D04346F5
:104670005919002001F0EEFA060001200021404205
:1046800000F0DAFF002001F07FFAAD19FDF712F813
:104690000D4B18605960DEE7FDF70CF80A4B1E68F9
:1046A0005F680A4A002392197B419942BED8D2D151
:1046B0009042D0D9BAE70025CDE7C04640420F006E
:1046C0001C1D0020FFFFFF7F480E002020A10700D7
:1046D00000487047A48100100048704750810010C6
:1046E00010B50400154B1B78002B0ED0002C11D1F7
:1046F000134B144A5A80012301335B001BB2C022C2
:10470000920013430E48038010BD11210B4800F0A6
:1047100025F8EBE7052C0ED8A4000B4BE45800233A
:10472000122BE9D8E25C002AE6D001335900044894
:104730004252DBB2F4E70020E6E7C046281D002025
:10474000B816002009040000B881001010B5024816
:1047500000F034F810BDC0460C1B002010B5002935
:1047600001D000230AE0114B114A35311148FFF7FF
:1047700089FB00240DE03732C25401334A1E9A42AD
:104780000FD90F2B0DD85A080B4CA25CDC07F0D4C4
:104790000424224114000F222240092AEBDC30328B
:1047A000EAE7C0180023037010BDC046D081001096
:1047B00014820010D88100100C1B002070B588B046
:1047C000040004AD002604960922002105A8FEF786
:1047D000A7FA00960922002101A8FEF7A1FA4B23AF
:1047E0002B700D226946280002F002FE002304E02F
:1047F0005A1D69468A5CE2540133072BF8DD08B084
:1048000070BD000010B5038B3F333F229343022954
:1048100015D0124C2268C260D31823609C0610D1B8
:104820000F4C6240634080246401A3420FD8890684
:10483000114380231B0619434368196010BD5B00B8
:10484000E7E7084B084A51210848FFF71BFB084BD4
:10485000054A53210548FFF715FBC046F01A002012
:1048600000001050CC830010DC840010FC8300108A
:104870004884001070B504007F230340C509580028
:1048800040194001264E801984706C426C4144707E
:104890000024C4700183C276012D1DD0DE002149A1
:1048A0008C4666445900491949011D4C61188E60B7
:1048B0005C00641964011A490C19A16800240C6099
:1048C000002B0FD15B005B195B01154DEB1800222B
:1048D0005A60154ADA6070BDDE0014498C466644A1
:1048E0008660E5E7012D0ED0591EC900104CA44684
:1048F00061445B005B195B01094CE31859601100CE
:10490000FFF780FFE7E7591EC9000A4CA44661443F
:104910005B005B195B01024DEB185960EFE7C04685
:10492000EC16002084001050000110508000105040
:104930000C0010500800105010B504007F202040DB
:10494000E409400000194001024BC01800F032F9A0
:1049500010BDC046EC16002010B5002804D101217E
:104960000520FCF73BF810BDD421034B034A490056
:104970000348FFF787FAC04690840010CC840010EB
:10498000FC83001010B5002805D1002200218020F2
:10499000FFF7D2FF10BDD921024B034A490003485B
:1049A000FFF770FA90840010BC840010FC830010A4
:1049B000024B80225202DA647047C0460020115038
:1049C00070B5041E26D100F0D3F8164D0C23AB674A
:1049D000FF2215490520FCF757F840220021134813
:1049E000FEF79EF9002240210020FFF743FF00223E
:1049F00040218020FFF73EFF02F03AFD01232B64A7
:104A000080239B05EB649023094AEA502000FFF7BE
:104A1000CFFF70BD7621074B074AFF310748FFF7EC
:104A200031FAC0460000115075040020EC16002039
:104A300010D0010090840010F0840010FC8300105E
:104A4000044B1970002904D0034A90238021890265
:104A5000D15070473A1D0020002011500B785B06A2
:104A600002D14B78052B00D070478A78014B1A6031
:104A7000FAE7C0460000115010B50C0000280DD117
:104A8000097963791B020B435B05590DE2789207A4
:104A9000920FA078FFF7EEFE012010BDF021034B2E
:104AA000034AFF310348FFF7EDF9C0469084001038
:104AB000AC840010FC83001010B502F0D9FC10BDCE
:104AC00010B50400080011001A00002C03D1FFF7F4
:104AD00033FF012010BDFE21024B034A4900034869
:104AE000FFF7D0F9908400109C840010FC83001024
:104AF00010B57F2213000B400A4205D1CA09012AD2
:104B00000ED00220074A9066C9095800401840019B
:104B10000549401880221201002102F0C1FC10BD9D
:104B20000120EFE700201150EC16002010B57F2285
:104B3000100008400A4200D110BDC90940004018C9
:104B40004001044940180023C3700022024902F0CA
:104B5000A7FCF1E7EC160020FFF7FFFF04E00A785E
:104B60000270013101301A00531E002AF7D170473C
:104B700010B580235B040A4A13600A4A13600A4B8B
:104B80001A6880235B049343F9D1802252010021EB
:104B90000648FEF7C5F8064B09225A6710BDC04605
:104BA00000E0004000F0004008C00040000010504D
:104BB0000000115070B504000D001600837E002B1C
:104BC00017D1A6820023E3820133A376256120005A
:104BD00002F01EFC002804D00C4A90238021890298
:104BE000D150200002F0FCFB00280AD001232377DB
:104BF00070BD81780648FFF7B5FA200002F048FC46
:104C0000DFE7200002F03CFCF2E7C0460020115034
:104C1000D085001070B5050000240AE0D21A5201B8
:104C2000164B9B18002B11D0DB68280098470134E5
:104C3000E4B2134B1B78591C2200A1420CDBA342A7
:104C4000ECD9104B1B6862019B18EBE70E4A0F4929
:104C50000F48FFF787FA10E00E4C54220021200085
:104C6000FEF75EF8201D1022FF21FEF759F8200004
:104C700014302022FF21FEF753F870BD8C870010FE
:104C8000391D00206C0E00201602000068870010FD
:104C9000188600109811002010B5FFF7BBFF00F038
:104CA00057FE10BD70B505000C001600486900F0F5
:104CB00059FE6369320001212800984770BD000049
:104CC000F0B5DE4657464E464546E0B583B08246CF
:104CD0000139C8B2FFF700FD002803D043780193E3
:104CE000022B0CD0514A52495248FFF73BFA0020A0
:104CF00003B0F0BCBB46B246A946A046F0BDC5799C
:104D00006A1101234C491A4014010A781026B24353
:104D100022430A70AD112B405B01D2B22024A24382
:104D200013430B70060009368278C3781B021343C5
:104D300083469B445E4577D273780B2B0AD00123C0
:104D400099467378042B0AD15B469B1B9BB298460D
:104D500000243DE0F37899463378F618F1E7374AB6
:104D600033493448FFF7FEF90020C1E77D1B6D0190
:104D7000334B5D1938E0334A2D492E48FFF7F2F9DD
:104D80000020B5E72A69304B9A423CD1019B9946F5
:104D900039E02E4A26492748FFF7E4F90020A7E723
:104DA00025482300009C22003100143001F07AFCD9
:104DB000A4466644264B1B7801339F42BADD254A40
:104DC0001B491C48FFF7CEF9002091E70134E4B2FB
:104DD0001F4B1D786B1C2700A342EBDBA542C5D9F6
:104DE0001D4B1D686301ED18002DC4D042463100F3
:104DF00050462B69984700900828E7D98045E5D3AD
:104E00004B46012BBED000218945C9D9B3785B1828
:104E1000DBB2094AD2181279FF2ABAD1064AD3184E
:104E20001C710131C9B2EFE7012061E7C70300003F
:104E30003C8700101886001098110020E203000043
:104E40008C870010EB030000415E00100A04000094
:104E5000391D0020190400006C0E002070477047B7
:104E6000002070470020704770B505000C00CB781B
:104E700088780F2B53D89A002E498A589746FFF707
:104E800027FC021E05D012232100280000F00CFD93
:104E900046E0294A29492A48FFF764F900203FE003
:104EA000FFF7C0F9021E3CD08178C3781B020B4388
:104EB0002100280000F0F8FC32E0022B0CD0FFF7B4
:104EC000D1FF021E2FD09178D3781B020B43210013
:104ED000280000F0E9FC23E0FFF7FEFB021EF2D100
:104EE000184A16491648FFF73DF9002018E02379C3
:104EF000617909021943FFF7F3FB021E15D003780D
:104F00002100280000F0D0FC0AE0FFF7A9FF021EF4
:104F10000DD003782100280000F0C6FC00E000203E
:104F200070BD0020FCE70020FAE70020F8E7002031
:104F3000F6E7C046308600102B04000024870010DE
:104F40001886001052040000704770477047704781
:104F5000024B5878431E9841C0B270479811002008
:104F6000024B18784007C00F7047C04698110020C8
:104F7000034B1878FF38431E9841C0B27047C046B3
:104F8000B40C002070B50500FFF7F2FF061E01D03B
:104F9000300070BD542200212448FDF7C1FE244B8F
:104FA00000221A70234C2000FBF720FF224B1C60CC
:104FB000224C20001430FBF765FF200001F00EFFAB
:104FC0001F4B1C601F4B002B04D01F48FFF74AF9F2
:104FD0001E4B186000240BE0D21A52011C4B9B1888
:104FE000002B12D05B68002B0FD098470134E4B23D
:104FF000154B1B78591C2200A1420DDBA342EBD9B3
:10500000124B1B6862019B18EAE7F122520011491A
:105010001148FFF7A7F8BBE7104B1D702800FFF7FA
:10502000CFFC2800FFF798FC0126B1E7981100207B
:105030003B1D002050110020EC110020980C002096
:10504000F011002065420010391D00206C0E002078
:105050008C870010E886001018860010B40C002021
:1050600070B50D00104B1E788B7870221A420DD14E
:105070000E4B9978280001F0BFFA041E0DD02900CC
:105080003000FFF7F9FC0400200070BD084A094910
:105090000948FFF767F80024F6E7084A054906487B
:1050A000FFF760F8F0E7C046B40C0020981100202C
:1050B000FC040000F486001018860010FD040000B7
:1050C000F0B5D6464F464646C0B581460C0017009F
:1050D0009846089B9A46002517E09B22D200174964
:1050E0001748FFF73FF800263000E0BCBA46B1464B
:1050F000A846F0BD134A11491148FFF733F8F3E70A
:10510000099A13702378E4180135AF4214DD6378EF
:10511000052BE2D1E1788907890F4145DDD12100D6
:105120004846FFF79DFF061EE4D0A378DA09012A5E
:10513000E6D052461370E5E70126D5E70487001054
:1051400018860010D904000010B57F200840C90956
:10515000400040183030044908180430034B1968E7
:1051600001F004FA10BDC04698110020EC11002097
:1051700010B57F200840C90940004018303004496C
:1051800008180430034B196801F018FA10BDC04626
:1051900098110020EC110020F0B5C64600B582B091
:1051A00001931A4800787F250D40CE096F00184CF6
:1051B000E419A41930342479E4071DD46F00144C89
:1051C000E419A419303423790127BC4667463B43D0
:1051D0002371019BFFF774FC002813D16D000C4B69
:1051E0005D19AE1930363379012293433371337927
:1051F00003329343337105E0064A07490748FEF737
:10520000B1FF002002B080BCB846F0BDB40C002055
:10521000981100202A050000D8860010188600107A
:1052200070B50A4B18787F240C40CD09FFF760FC5D
:105230006400074B1B195B1930331A7902210A43AA
:105240001A711A7901210A431A7170BDB40C002039
:105250009811002070B50A4B18787F240C40CD09B6
:10526000FFF764FC6400074B1B195B1930331A7994
:1052700002218A431A711A7901398A431A7170BD61
:10528000B40C0020981100207F220A40CB09520064
:1052900003498918C918303108798007C00F704751
:1052A00098110020F0B5C64600B582B004000D008C
:1052B000002000F057FB2B7860221A40602A12D0A1
:1052C000402A17D02B78DB06DB0E012B00D1DAE069
:1052D000022B00D11AE1002B16D00026300002B0BC
:1052E00080BCB846F0BDC94AC949CA48FEF73AFF72
:1052F0000026F3E7C84800F035FB2A000121200012
:10530000FEF794FF0600E9E7202A0AD0002A00D021
:105310006EE16B78092B00D96CE19B00BF4AD35832
:105320009F462B790F2B00D95CE1BD4AD3181B791E
:10533000BC4A11788B420CD2BB4A126859015118F1
:10534000002900D152E12A002000FFF7ABFC060043
:10535000C4E74A1C9A4200DA46E1591A4901B34BA4
:105360005918EDE7280000F003FBA9782000FFF7AB
:1053700009FBAB4A137802210B4313700126ADE7FA
:10538000A74B5B786A460632137001232900200080
:1053900000F08AFA0126A1E7AE78A14B5B78DBB278
:1053A000B3422BD09E4B5B78002B0CD19C4B5E7094
:1053B000002E21D031002000FFF782FC061E12D003
:1053C000FFF7C2FD1AE000212000FFF739FB2000A3
:1053D000FFF772FB924FBB7898462000FFF71AFC4C
:1053E0004346BB70E2E7924A89498A48FEF7BAFE13
:1053F0008B4B00225A7071E7FFF7A7FD29002000B0
:1054000000F036FA012669E729002000FFF72CFD9D
:10541000060063E7A978EB781B020B43012B01D050
:1054200000265BE77E4A137808210B43137029009E
:10543000200000F01DFA012650E7A978EB781B0246
:105440000B43012B01D0002648E7754A1378082149
:105450008B4313702900200000F00AFA01263DE773
:105460006F4B1A785109920801230B4002210A4020
:1054700013436A460632138002232900200000F0FD
:1054800013FA01262AE72B790F2B00D9B4E0644ADE
:10549000D3181B79634A11788B4223D2624A12686F
:1054A00059015118002900D1AAE02A002000FFF775
:1054B000F9FB061E00D011E72B7860221A4200D0BB
:1054C0000CE76B780A3B012B00D907E7002000F0BE
:1054D00049FA6B780A2B0ED02900200000F0C8F999
:1054E0000126FBE64A1C9A4200DA87E0591A490174
:1054F0004E4B5918D6E76B469A1D002313700133A3
:105500002900200000F0D0F90136E7E629797F2351
:105510000B40CE097020084217D15B004048C318E9
:105520009B191B7D3F480078834215D23E48066890
:105530005B01F618002A19D0002E63D02A00310032
:105540002000FFF7AFFB0600C8E63A4A3049314871
:10555000FEF708FE0026C1E6461C9E4204DB1B1A2D
:105560005B01324EF618E5E70026E3E76A78012A88
:1055700012D0032A10D0002A01D00026AEE6200067
:10558000FFF782FE6B469A1D10800223290020003F
:1055900000F08AF90126A1E6A878EB781B02034304
:1055A00004D1012A1AD02000FFF73AFE002E2BD09A
:1055B0002A0031002000FFF775FB002000F0D2F92F
:1055C000174A3523D35CDB07DE0F002B00D085E6BE
:1055D0002900200000F04CF901267FE62000FFF7AB
:1055E00039FEE3E7002679E6002677E6002675E631
:1055F000002673E6002671E600266FE600266DE6BB
:1056000000266BE6002669E6012667E6C502000073
:1056100050870010188600102D4200108C86001054
:1056200098110020391D00206C0E00208C8700107E
:10563000150300008603000030B585B0FFF798FC25
:10564000002808D105B030BD01AC2078FFF724FB5D
:105650002279644B9A70644B1C6821001431626992
:10566000EFF3108072B61368002BFCD0BFF35F8F8E
:10567000486001A9200001F054FB6269A369BFF3EF
:105680005F8F0021116083F310880028DAD001AB0E
:105690005B78082BDFD89B00544AD3589F4601AB58
:1056A0001878FFF7F9FAFFF750FCD4E7504B1B7856
:1056B000002B2DD04E4A1378013BDBB213701378C8
:1056C000002BC8D1474B1A78012401210A431A70D4
:1056D0003422995CA1439954995C042081439954E4
:1056E0000132995CA1439954995C8143995401AB6F
:1056F000187802A9FFF7D6FD0028ACD101AC2078BC
:105700000021FFF7F5F920788021FFF7F1F9A2E7F2
:10571000384A39493948FEF725FD93E701AB197935
:105720007F220A40CC0950002E4B1B181B19303326
:1057300018790125A843187118790335A843187101
:10574000002A15D05200274B9A181219137D2C4AA3
:105750001278934213D22B4A12685B01D318002BA4
:1057600015D09C6901A84279039B0078A04772E795
:1057700001A84279039B007800F008F96BE7501C00
:10578000984204DB9B1A5B011F4AD318E7E71F4AC4
:1057900019491A48FEF7E6FC54E7124B1B78DB0761
:1057A00000D458E70F4B18780007C00FFFF7CEFB67
:1057B00051E70C4B1B78DB0700D44CE7FFF7C7FB26
:1057C00049E7029B002B00D145E70398984742E741
:1057D000044BDB78DB0700D43DE70298FFF73FFB83
:1057E00039E7C04698110020F0110020B48600105F
:1057F0003B1D0020560200007C8700101886001018
:10580000391D00206C0E00208C87001081020000E2
:10581000F8B50500144B9F89DE89BB1B9BB21C1C8D
:10582000402B00D94024A4B20F4B1B785BB2002B55
:1058300008DB0021B74213D00C4A23002800FFF7F1
:10584000ABFCF8BDB74209D0074B9968402C09D88A
:1058500022000648FDF76AFA8021EBE78021E9E79C
:105860000022EAE70020ECE73C110020581100205C
:1058700070B506000C000B4D08222800FDF756FA03
:105880000023AB60EB81AB810023E356002B06DBEA
:105890008021002300223000FFF77EFC70BD002134
:1058A000F7E7C0463C110020F0B5C64600B580467B
:1058B0000C0016001D00234F08223800FDF736FAB1
:1058C000BE600023FB81A379E179090219430B1C17
:1058D000A94200D92B1C99B21A4A9381A279E37983
:1058E0001B02134319D0002901D0002E08D04046D6
:1058F000FFF78EFF041E0AD0200080BCB846F0BD22
:10590000772211491148FEF72DFC0024F4E77D228F
:105910000D490E48FEF726FCEEE70023E356002B68
:105920000DDB8021002300224046FFF735FC041EDA
:10593000E2D1802204490548FEF714FCDCE700218F
:10594000F0E7C0463C110020E487001018860010E4
:1059500010B5142200210248FDF7E2F910BDC0463F
:105960003C110020014B18617047C0463C110020DB
:1059700010B50100044C08222000FDF7D7F90023E0
:10598000A360E381A38110BD3C11002070B5050028
:105990001C00C909364B1B78DB098B4216D0002C42
:1059A00007D0A72233493448FEF7DCFB002420004F
:1059B00070BD2F4C2100FFF751F82369002B03D055
:1059C0002B4A0321280098470124F0E7284B1B7835
:1059D0005BB2002B07DB264B9868002845D02200DD
:1059E0002649FDF7A3F9A2B22149CB89D3189BB26E
:1059F000CB818A6812198A60CA88934201D03F2CF1
:105A000028D81B4B1B69002B05D0194A02212800FE
:105A10009847002814D0164B1B785BB2002B0DDB87
:105A20008021002300222800FFF7B6FB041EBED110
:105A3000D02210491048FEF795FBB8E70021F0E7A7
:105A400000212800FFF754F880212800FFF750F8C4
:105A50000124ACE72800FFF7DBFE041EA7D1D82203
:105A600004490548FEF77EFBA1E700249FE7C046F6
:105A70003C110020CC87001018860010581100201F
:105A800070B50400FFF764FA002807D10020002851
:105A900003D0E378002B09D1002070BDFFF760FA36
:105AA000002801D10130F2E70020F0E72500103591
:105AB000280001F020F93F2801D80020EDE7E17827
:105AC0000020FFF741FB0028E7D0280001F013F980
:105AD0003F2808D992239B00E218E1784023002058
